:10035E0020544553542020434F4D504C4554452076
:10036E000020494331203D20202020202020202025
:10037E00200020494332203D202020202020202014
:10038E00202000202A204261636B20746F204D656F
:10039E006E7520002A2A504153532A2A002A2A46D3
:1003AE0041494C2A2A0049433120434F4E44495477
:1003BE00494F4E2020200047415445313D202047D3
:1003CE00415445323D20200047415445333D2020C5
:1003DE0047415445343D202000303000303100314B
:1003EE0030003131002020202020204943312020B0
:1003FE00202020202000256420256420256420252F
:10040E0064202564002A2A2A2A2A2A504153532A74
:10041E002A2A2A2A2A002A2A2A2A2A2A4641494CE4
:10042E002A2A2A2A2A2A0049433220434F4E444977
:10043E0054494F4E202020002020202020204943C8
:10044E0032202020202020200047415445353D20D9
:10045E002047415445363D202000300031002564B0
:10046E002025642025642025642025642025642011
:10047E002564004275616C6F792026204E7573736A
:10048E0072612E004D414348494E45204943205448
:10049E004553542E003734585820303020303120F8
:1004AE003032203033003034203038203332203890
:1004BE00362E2020202000504C45415345205052CE
:1004CE0045535320312C32002031203D20415554CC
:1004DE004F204D4F44452020002032203D204D41DD
:1004EE004E55414C204D4F444500596F7520536574
:1004FE006C656374204D6F64652000596F752049DB
:10050E006E736572742056616C7565002020202014
:10051E00496E76616C6964202020202000506C6545
:10052E0061736520507265737320312C3200256320
:10053E0000504C4541534520494E53455254204995
:10054E00430020504C454153452020494E534552BF
:10055E005420002053455249455320204E554D42BC
:10056E0045522000204F4620373478782020202016
:10057E00202020200020544845204D414348494E1C
:10058E0045204943200020544553544552202043D2
:10059E00616E6E2774200020544553542049432029
:1005AE00373458582564200020506C6561736520DF
:1005BE005072657373202A2000204261636B2020E5
:1005CE00746F20204D656E752000202F2F2F2F2F3A
:1005DE002020202F5E5E5E2F200028405E5F5E4052
:0A05EE002920207C2A5F2A7C2000CF
:100E84008226000082300000823E00008250000072
:100E9400822E0000823C0000824E0000826200002C
:100EA40082200000821C0000822C0000823A000094
:100EB400824C00008260000082380000824A0000F8
:100EC400825E00008272000082240000821E000004
:100ED4008236000082480000825C000082700000BC
:100EE40082460000825A0000826E00008282000066
:100EF400822A0000822200008244000082580000FE
:100F0400826C00008280000082560000826A000029
:100F1400827E0000828E000082340000822800005D
:100F24008254000082680000827C0000828C0000F1
:100F34008298000082A2000082660000827A00008B
:100F4400828A00008296000082A0000082A800002D
:100F5400824200008232000082940000829E0000DF
:100F640082A6000082AC0000829C000082A40000E3
:100F740082AA000082B0000082880000827800000B
:100F84008264000082760000828600008292000063
:100F9400827400008284000082900000829A000023
:100FA400825200008240000082B5000082B9000035
:100FB40082BD000082C1000082B7000082BB000035
:100FC40082BF000082C3000082B2000082AE000033
:100FD400820500008201000082180000821A0000CD
:0A0FE4008203000081000081B400C8
:085FF600E4FF000FEFB414FA00
:015FFE002280
:0B37F200125FF6D2C0125FF6C2C022C8
:107E440030C002D2C1D2C0125FF6C2C1125FF6C204
:027E5400C0224A
:0417E90078C6EFF2DD
:1017ED00C2C0C2C1125FF6D2C0125FF6D2C1025F93
:0117FD00F6F5
:0527D700127E447F703A
:0227DC00AE0746
:1027DE00E4FDEE339200A20092C11237F2EE25E034
:1027EE00FE000000000DEDB408E8D2C11237F2026F
:0227FE005FF684
:107DE000E4FEFDA2C19200EE25E0FEA200E4334EC7
:0B7DF000FE1237F20DEDB408EAAF06FA
:017DFB002265
:063BF300E47801F208F283
:103BF90078C5740FF21227D77FEF1227DC1217ED61
:103C09007F1E7E00124FBC127E447F711227DC1288
:103C19007DE01217E9E2B4EE08124FB878C57431A5
:103C2900F278C6E2B4ED08124FB878C57434F27868
:103C3900C6E2B4EB08124FB878C57437F278C6E219
:103C4900B4E708124FB878C5742AF21227D77FDF74
:103C59001227DC1217ED7F1E7E00124FBC127E4424
:103C69007F711227DC127DE01217E9E2B4DE081237
:103C79004FB878C57432F278C6E2B4DD08124FB88D
:103C890078C57435F278C6E2B4DB08124FB878C546
:103C99007438F278C6E2B4D708124FB878C57430D0
:103CA900F21227D77FBF1227DC1217ED7F1E7E0085
:103CB900124FBC127E447F711227DC127DE012176D
:103CC900E9E2B4BE08124FB878C57433F278C6E297
:103CD900B4BD08124FB878C57436F278C6E2B4BBE1
:103CE90008124FB878C57439F278C6E2B4B7081229
:0B3CF9004FB878C57423F278C5E2FFD5
:013D0400229C
:084FB8007F887E137D007C0060
:104FC0008034E4FFFEFDFC78C7E2FB08E2F908E26A
:104FD000FA08E2CBF8D3123B03402278C7E2FC0880
:104FE000E2FD08E2FE08E224FFFFEE34FFFEED34AE
:0E4FF000FFFDEC34FFFC78C7123B1480C52295
:087E300053B00FE254F042B020
:0C7E3800D2B37F0A7E00127693C2B32200
:08768F007FF47E017D007C0008
:107697008034E4FFFEFDFC78C9E2FB08E2F908E26A
:1076A700FA08E2CBF8D3123B03402278C9E2FC0880
:1076B700E2FD08E2FE08E224FFFFEE34FFFEED34B0
:0E76C700FFFDEC34FFFC78C9123B1480C52295
:1047E60078C5EFF2C2B2127E3053B00F78C5E2FF41
:0847F600C4127E3412768F22FA
:107E180078C8EFF2D2B2127E3053B00F78C8E2FFC2
:087E2800C4127E3412768F2291
:1077CD00C2B37F647E001276937F331247E67F3219
:1077DD001247E67F281247E67F0E1247E67F061214
:1077ED0047E67F011247E67FF47E017D007C0002B3
:0277FD0076977D
:107AC50078C574FEF2087400F2087407F278C5E20E
:107AD500FB08E2FA08E2F9123AA2FF127E1878C70B
:107AE500E22401F218E23400F218E2FB08E2FA0897
:077AF500E2F9123AA270D67B
:017AFC002267
:052FF9007F800247E6A5
:0567FA007FC00247E62C
:057E6C007F900247E6D3
:0807EF00E22FF318E23E19F3BA
:0507F7007FD00247E67F
:080FEF00E22FF318E23E19F3B2
:050FF7007F010247E646
:102FBB008034E4FFFEFDFC78C5E2FB08E2F908E291
:102FCB00FA08E2CBF8D3123B03402278C5E2FC08A7
:102FDB00E2FD08E2FE08E224FFFFEE34FFFEED34D3
:0E2FEB00FFFDEC34FFFC78C5123B1480C522BC
:101FDE00E4FDFCC3ED9FEC9E5015E4FBFA0BBB0039
:0F1FEE00010AEB642C4A70F50DBD00010C80E474
:011FFD0022C1
:08638A007D647C007FB07E04FD
:0F639200AB07AA0678C5ECF208EDF28C83F58212
:1063A100E408F208F208F208F2AC02AD037E137FB2
:1063B10088123ACD78C7EEF208EFF27C007D05AF86
:1063C10082AE83123ABB78C7E2FC08E2FD123ACDF5
:1063D10078C5EEF208EFF2E478C9F208F278C5E286
:1063E100FE08E2FFC378CAE29FEE6480F5F018E28E
:1063F100648095F05024D2B078C7E2FE08E2FF1223
:106401001FDEC2B018E2FE08E2FF121FDE78CAE208
:0A6411002401F218E23400F280C307
:01641B00225E
:107DFC0012638A7F407E1F7D007C00122FBB1263B2
:0C7E0C008A7F407E1F7D007C00022FBB9F
:0B7E56007DF47C017F787E05026392C2
:0B7E61007D327C007F087E07026392E8
:107AFD0012664F1266981266E112672A783EE2FE10
:107B0D0008E2FF7851E22FFF18E23EFE7831E22FB6
:107B1D00FF18E23EFE7827E22F791DF318E23E1999
:027B2D00F32241
:107B2F00126773126800126849126892784EE2FE6B
:107B3F0008E2FF7863E22FFF18E23EFE783DE22F66
:107B4F00FF18E23EFE782FE22F7921F318E23E195B
:027B5F00F3220F
:102E6A00E47826F208F27830F208F2783EF208F2B4
:102E7A007850F208F2782EF208F2783CF208F278EA
:102E8A004EF208F27862F208F27820F208F2781C20
:102E9A00F208F2127AFD127B2F120FF7122FF9782D
:102EAA00C874FFF2087403F208745EF27BFE7A00BB
:102EBA00790712005F127AC51267FA78C874FFF2AE
:102ECA00087403F208746FF27BFE7A007907120025
:102EDA005F127AC5127E6C78C874FFF2087403F226
:102EEA00087480F27BFE7A00790712005F127AC5B5
:102EFA001207F778C874FFF2087403F2087491F2A3
:102F0A007BFE7A00790712005F127AC5781DE264A7
:102F1A0010700218E27FC770211247E678C874FF62
:102F2A00F2087403F20874A2F27BFE7A007907129F
:102F3A00005F127AC5127DFC801F1247E678C874BA
:102F4A00FFF2087403F20874ABF27BFE7A00790789
:102F5A0012005F127AC5127E567821E2641070025E
:102F6A0018E27F9770211247E678C874FFF2087456
:102F7A0003F20874A2F27BFE7A00790712005F124C
:102F8A007AC5127DFC801F1247E678C874FFF208E2
:102F9A007403F20874ABF27BFE7A00790712005FC1
:102FAA00127AC5127E567F887E137D007C000267E6
:012FBA00BC5A
:10664F00C280C281C283C284C287C290C292C293E7
:10665F0030820B7827E22401F218E23400F2308501
:10666F000B7831E22401F218E23400F230860B7815
:10667F003FE22401F218E23400F230910B7851E23C
:09668F002401F218E23400F222A9
:10669800C280D281C283D284C287D290C292D2935E
:1066A80030820B7827E22401F218E23400F23085B8
:1066B8000B7831E22401F218E23400F230860B78CC
:1066C8003FE22401F218E23400F230910B7851E2F3
:0966D8002401F218E23400F22260
:1066E100D280C281D283C284D287C290D292C29315
:1066F10030820B7827E22401F218E23400F230856F
:106701000B7831E22401F218E23400F230860B7882
:106711003FE22401F218E23400F230910B7851E2A9
:096721002401F218E23400F22216
:10672A00D280D281D283D284D287D290D292D2938B
:10673A0020820B7827E22401F218E23400F2208545
:10674A000B7831E22401F218E23400F220860B7849
:10675A003FE22401F218E23400F220910B7851E270
:09676A002401F218E23400F222CD
:10677300C294C295C297C2A0C2A3C2A4C2A6C2A712
:1067830030960B782FE22401F218E23400F230A1A4
:106793000B783DE22401F218E23400F230A20B78C8
:1067A3004FE22401F218E23400F230A50B7863E2E1
:0967B3002401F218E23400F22284
:10680000C294D295C297D2A0C2A3D2A4C2A6D2A744
:1068100030960B782FE22401F218E23400F230A116
:106820000B783DE22401F218E23400F230A20B783A
:106830004FE22401F218E23400F230A50B7863E253
:096840002401F218E23400F222F6
:10684900D294C295D297C2A0D2A3C2A4D2A6C2A7FB
:1068590030960B782FE22401F218E23400F230A1CD
:106869000B783DE22401F218E23400F230A20B78F1
:106879004FE22401F218E23400F230A50B7863E20A
:096889002401F218E23400F222AD
:10689200D294D295D297D2A0D2A3D2A4D2A6D2A772
:1068A20020960B782FE22401F218E23400F220A1A4
:1068B2000B783DE22401F218E23400F220A20B78B8
:1068C2004FE22401F218E23400F220A50B7863E2D1
:0968D2002401F218E23400F22264
:10793600E47826F208F27830F208F2783EF208F29D
:107946007850F208F2782EF208F2783CF208F278D3
:107956004EF208F27862F208F27820F208F2781C09
:09796600F208F212222C02245650
:10222C00120FF7122FF978C874FFF2087403F20832
:10223C0074B4F27BFE7A00790712005F127AC51231
:10224C0067FA78C874FFF2087403F20874C5F27B5D
:10225C00FE7A00790712005F127AC5127E6C78C87C
:10226C0074FFF2087403F20874D6F27BFE7A0079DC
:10227C000712005F127AC57F507EC37D007C00126E
:10228C0067BC7F8E1247E678C874FFF2087403F2BD
:10229C000874E7F27BFE7A00790712005F127AC5A8
:1022AC00127E6112375A7F507EC37D007C0012670C
:1022BC00BC7F8E1247E678C874FFF2087403F208EC
:1022CC0074EAF27BFE7A00790712005F127AC5126B
:1022DC007E611241957F507EC37D007C001267BCED
:1022EC007F8E1247E678C874FFF2087403F2087404
:1022FC00EDF27BFE7A00790712005F127AC5127E2E
:10230C006112422D7F507EC37D007C001267BC7F22
:10231C008E1247E678C874FFF2087403F20874F062
:10232C00F27BFE7A00790712005F127AC5127E6189
:10233C001254C07F507EC37D007C001267BC120F0C
:10234C00F7122FF978C874FFF2087403F208745E60
:10235C00F27BFE7A00790712005F127AC51267FAD7
:10236C0078C874FFF2087403F20874F3F27BFE7AF7
:10237C0000790712005F127AC5783EE2FE08E2FF90
:10238C007851E22FFF18E23EFE7831E22FFF18E27F
:10239C003EFE7827791D1207EF78C874FFF2087497
:1023AC0004F2087404F27826E2FF08E278CBCFF24C
:1023BC0008EFF27830E2FF08E278CDCFF208EFF2C6
:1023CC00783EE2FF08E278CFCFF208EFF27850E2E5
:1023DC00FF08E278D1CFF208EFF2781CE2FF08E2B6
:1023EC0078D3CFF208EFF27BFE7A00790712005F08
:1023FC00127AC5781DE26410700218E27021127E08
:10240C006C78C874FFF2087404F2087413F27BFE43
:10241C007A00790712005F127AC5127DFC801F12B8
:10242C007E6C78C874FFF2087404F2087424F27B92
:10243C00FE7A00790712005F127AC5127E567FA8C9
:0A244C007E617D007C001267BC2257
:10245600120FF7122FF978C874FFF2087404F20805
:102466007435F27BFE7A00790712005F127AC51284
:1024760067FA78C874FFF2087403F20874C5F27B31
:10248600FE7A00790712005F127AC5127E6C78C850
:1024960074FFF2087403F20874D6F27BFE7A0079B0
:1024A6000712005F127AC57F507EC37D007C001242
:1024B60067BC7F8E1247E678C874FFF2087403F291
:1024C6000874E7F27BFE7A00790712005F127AC57C
:1024D600127E611242C57F507EC37D007C0012676A
:1024E600BC7F8E1247E678C874FFF2087403F208C0
:1024F60074EAF27BFE7A00790712005F127AC5123F
:102506007E6112435D7F507EC37D007C001267BCF6
:102516007F8E1247E678C874FFF2087403F20874D7
:10252600EDF27BFE7A00790712005F127AC5127E01
:10253600611243F57F507EC37D007C001267BC7F2D
:102546008E1247E678C874FFF2087403F20874F036
:10255600F27BFE7A00790712005F127AC5127E615D
:102566001255577F507EC37D007C001267BC783CB5
:10257600E2FE08E2FF782FE22FFF18E23EFE784FD8
:10258600E22FFF18E23EFE78637921120FEF122F39
:10259600F978C874FFF2087403F208745EF27BFEE1
:1025A6007A00790712005F127AC51267FA78C87442
:1025B600FFF2087404F2087446F27BFE7A0079078B
:1025C60012005F127AC51207F778C874FFF2087412
:1025D60004F2087404F2782EE2FF08E278CBCFF218
:1025E60008EFF2783CE2FF08E278CDCFF208EFF28E
:1025F600784EE2FF08E278CFCFF208EFF27862E297
:10260600FF08E278D1CFF208EFF27820E2FF08E285
:1026160078D3CFF208EFF27BFE7A00790712005FDB
:10262600127AC57821E26410700218E27021127ED7
:102636006C78C874FFF2087404F2087413F27BFE17
:102646007A00790712005F127AC5127DFC801F128C
:102656007E6C78C874FFF2087404F2087424F27B66
:10266600FE7A00790712005F127AC5127E567FA89D
:0A2676007E617D007C001267BC222B
:1067BC008034E4FFFEFDFC78C5E2FB08E2F908E258
:1067CC00FA08E2CBF8D3123B03402278C5E2FC086E
:1067DC00E2FD08E2FE08E224FFFFEE34FFFEED349A
:0E67EC00FFFDEC34FFFC78C5123B1480C52283
:10375A00C280C281C283C284C287C290C292C2930B
:10376A007FC63082151247E67F54127E187827E208
:10377A002401F218E23400F280081247E67F46126A
:10378A007E187FCE3085151247E67F54127E187850
:10379A0031E22401F218E23400F280081247E67F8F
:1037AA0046127E187F963086151247E67F54127E9F
:1037BA0018783FE22401F218E23400F28008124736
:1037CA00E67F46127E187F9E3091141247E67F5498
:1037DA00127E187851E22401F218E23400F2221221
:0837EA0047E67F46127E18221B
:10419500C280D281C283D284C287D290C292D29386
:1041A5007FC63082151247E67F54127E187827E2C3
:1041B5002401F218E23400F280081247E67F461225
:1041C5007E187FCE3085151247E67F54127E18780B
:1041D50031E22401F218E23400F280081247E67F4A
:1041E50046127E187F963086151247E67F54127E5A
:1041F50018783FE22401F218E23400F280081247F1
:10420500E67F46127E187F9E3091141247E67F5452
:10421500127E187851E22401F218E23400F22212DB
:0842250047E67F46127E1822D5
:10422D00D280C281D283C284D287C290D292C293ED
:10423D007FC63082151247E67F54127E187827E22A
:10424D002401F218E23400F280081247E67F46128C
:10425D007E187FCE3085151247E67F54127E187872
:10426D0031E22401F218E23400F280081247E67FB1
:10427D0046127E187F963086151247E67F54127EC1
:10428D0018783FE22401F218E23400F28008124758
:10429D00E67F46127E187F9E3091141247E67F54BA
:1042AD00127E187851E22401F218E23400F2221243
:0842BD0047E67F46127E18223D
:1054C000D280D281D283D284D287D290D292D29308
:1054D0007FC630820A1247E67F54127E188013126C
:1054E00047E67F46127E187827E22401F218E2345C
:1054F00000F27FCE30850A1247E67F54127E188074
:10550000131247E67F46127E187831E22401F21822
:10551000E23400F27F9630860A1247E67F54127E0C
:105520001880131247E67F46127E18783FE2240166
:10553000F218E23400F27F9E3091081247E67F5461
:10554000027E181247E67F46127E187851E2240147
:07555000F218E23400F22220
:1042C500C294C295C297C2A0C2A3C2A4C2A6C2A7E5
:1042D5007FC63096151247E67F54127E18782FE276
:1042E5002401F218E23400F280081247E67F4612F4
:1042F5007E187FCE30A1151247E67F54127E1878BE
:104305003DE22401F218E23400F280081247E67F0C
:1043150046127E187F9630A2151247E67F54127E0C
:1043250018784FE22401F218E23400F280081247AF
:10433500E67F46127E187F9E30A5141247E67F540D
:10434500127E187863E22401F218E23400F2221298
:0843550047E67F46127E1822A4
:10435D00C294D295C297D2A0C2A3D2A4C2A6D2A70C
:10436D007FC63096151247E67F54127E18782FE2DD
:10437D002401F218E23400F280081247E67F46125B
:10438D007E187FCE30A1151247E67F54127E187825
:10439D003DE22401F218E23400F280081247E67F74
:1043AD0046127E187F9630A2151247E67F54127E74
:1043BD0018784FE22401F218E23400F28008124717
:1043CD00E67F46127E187F9E30A5141247E67F5475
:1043DD00127E187863E22401F218E23400F2221200
:0843ED0047E67F46127E18220C
:1043F500D294C295D297C2A0D2A3C2A4D2A6C2A774
:104405007FC63096151247E67F54127E18782FE244
:104415002401F218E23400F280081247E67F4612C2
:104425007E187FCE30A1151247E67F54127E18788C
:104435003DE22401F218E23400F280081247E67FDB
:1044450046127E187F9630A2151247E67F54127EDB
:1044550018784FE22401F218E23400F2800812477E
:10446500E67F46127E187F9E30A5141247E67F54DC
:10447500127E187863E22401F218E23400F2221267
:0844850047E67F46127E182273
:10555700D294D295D297D2A0D2A3D2A4D2A6D2A7C0
:105567007FC630960A1247E67F54127E18801312C0
:1055770047E67F46127E18782FE22401F218E234BC
:1055870000F27FCE30A10A1247E67F54127E1880C0
:10559700131247E67F46127E18783DE22401F2187F
:1055A700E23400F27F9630A20A1247E67F54127E59
:1055B7001880131247E67F46127E18784FE22401BF
:1055C700F218E23400F27F9E30A5081247E67F54B6
:1055D700027E181247E67F46127E187863E224019E
:0755E700F218E23400F22289
:107B61001268DB12692412696D1269B6784CE2FE63
:107B710008E2FF7861E22FFF18E23EFE783BE22F38
:107B8100FF18E23EFE782DE22F791FF318E23E192D
:027B9100F322DD
:107B93001269FF126A48126A91126ADA785EE2FE8B
:107BA30008E2FF7873E22FFF18E23EFE784BE22FE4
:107BB300FF18E23EFE7839E22F7925F318E23E19E9
:027BC300F322AB
:10321600E4782CF208F2783AF208F2784CF208F2E6
:103226007860F208F27838F208F2784AF208F27812
:103236005EF208F27872F208F27824F208F2781E4A
:10324600F208F2127B61127B93120FF7122FF978B4
:10325600C874FFF2087403F208745EF27BFE7A000B
:10326600790712005F127AC51267FA78C874FFF2FE
:10327600087403F208746FF27BFE7A007907120075
:103286005F127AC5127E6C78C874FFF2087403F276
:10329600087480F27BFE7A00790712005F127AC505
:1032A6001207F778C874FFF2087403F2087491F2F3
:1032B6007BFE7A00790712005F127AC5781FE264F6
:1032C60010700218E27FC770211247E678C874FFB3
:1032D600F2087403F20874A2F27BFE7A00790712F0
:1032E600005F127AC5127DFC801F1247E678C8740B
:1032F600FFF2087403F20874ABF27BFE7A007907DA
:1033060012005F127AC5127E567825E264107002AA
:1033160018E27F9770211247E678C874FFF20874A6
:1033260003F20874A2F27BFE7A00790712005F129C
:103336007AC5127DFC801F1247E678C874FFF20832
:103346007403F20874ABF27BFE7A00790712005F11
:10335600127AC5127E567F887E137D007C00027627
:01336600D591
:1068DB00C281C282C284C285C287C286C292C29161
:1068EB0030800B782DE22401F218E23400F2308371
:1068FB000B783BE22401F218E23400F230900B7873
:10690B004DE22401F218E23400F230930B7861E28D
:09691B002401F218E23400F2221A
:10692400C281D282C284D285C287D286C292D291D7
:1069340030800B782DE22401F218E23400F2308327
:106944000B783BE22401F218E23400F230900B7829
:106954004DE22401F218E23400F230930B7861E244
:096964002401F218E23400F222D1
:10696D00D281C282D284C285D287C286D292C2918E
:10697D0030800B782DE22401F218E23400F23083DE
:10698D000B783BE22401F218E23400F230900B78E0
:10699D004DE22401F218E23400F230930B7861E2FB
:0969AD002401F218E23400F22288
:1069B600D281D282D284D285D287D286D292D29105
:1069C60020800B782DE22401F218E23400F22083B5
:1069D6000B783BE22401F218E23400F220900B78A7
:1069E6004DE22401F218E23400F220930B7861E2C2
:0969F6002401F218E23400F2223F
:1069FF00C295C296C2A0C2A1C2A3C2A2C2A6C2A57C
:106A0F0030940B7839E22401F218E23400F2309717
:106A1F000B784BE22401F218E23400F230A40B7829
:106A2F005FE22401F218E23400F230A70B7873E230
:096A3F002401F218E23400F222F5
:106A4800C295D296C2A0D2A1C2A3D2A2C2A6D2A5F2
:106A580030940B7839E22401F218E23400F23097CE
:106A68000B784BE22401F218E23400F230A40B78E0
:106A78005FE22401F218E23400F230A70B7873E2E7
:096A88002401F218E23400F222AC
:106A9100D295C296D2A0C2A1D2A3C2A2D2A6C2A5A9
:106AA10030940B7839E22401F218E23400F2309785
:106AB1000B784BE22401F218E23400F230A40B7897
:106AC1005FE22401F218E23400F230A70B7873E29E
:096AD1002401F218E23400F22263
:106ADA00D295D296D2A0D2A1D2A3D2A2D2A6D2A520
:106AEA0020940B7839E22401F218E23400F220975C
:106AFA000B784BE22401F218E23400F220A40B785E
:106B0A005FE22401F218E23400F220A70B7873E264
:096B1A002401F218E23400F22219
:10796F00E4782CF208F2783AF208F2784CF208F246
:10797F007860F208F27838F208F2784AF208F27872
:10798F005EF208F27872F208F27824F208F2781EAA
:09799F00F208F2122800022A2A63
:10280000120FF7122FF978C874FFF2087403F20858
:1028100074B4F27BFE7A00790712005F127AC51257
:1028200067FA78C874FFF2087403F20874C5F27B83
:10283000FE7A00790712005F127AC5127E6C78C8A2
:1028400074FFF2087403F20874D6F27BFE7A007902
:102850000712005F127AC57F507EC37D007C001294
:1028600076D57F8E1247E678C874FFF2087403F2BB
:102870000874E7F27BFE7A00790712005F127AC5CE
:10288000127E6112448D7F507EC37D007C001276E3
:10289000D57F8E1247E678C874FFF2087403F208F9
:1028A00074EAF27BFE7A00790712005F127AC51291
:1028B0007E611245257F507EC37D007C001276D557
:1028C0007F8E1247E678C874FFF2087403F208742A
:1028D000EDF27BFE7A00790712005F127AC5127E54
:1028E000611245BD7F507EC37D007C001276D57F8E
:1028F0008E1247E678C874FFF2087403F20874F089
:10290000F27BFE7A00790712005F127AC5127E61AF
:102910001255EE7F507EC37D007C001276D5120FDB
:10292000F7122FF978C874FFF2087403F208745E86
:10293000F27BFE7A00790712005F127AC51267FAFD
:1029400078C874FFF2087403F20874F3F27BFE7A1D
:1029500000790712005F127AC5784CE2FE08E2FFA8
:102960007861E22FFF18E23EFE783BE22FFF18E28B
:102970003EFE782D791F1207EF78C874FFF20874B5
:1029800004F2087404F2782CE2FF08E278CBCFF26C
:1029900008EFF2783AE2FF08E278CDCFF208EFF2E2
:1029A000784CE2FF08E278CFCFF208EFF27860E2ED
:1029B000FF08E278D1CFF208EFF2781EE2FF08E2DA
:1029C00078D3CFF208EFF27BFE7A00790712005F2E
:1029D000127AC5781FE26410700218E27021127E2C
:1029E0006C78C874FFF2087404F2087413F27BFE6A
:1029F0007A00790712005F127AC5127DFC801F12DF
:102A00007E6C78C874FFF2087404F2087424F27BB8
:102A1000FE7A00790712005F127AC5127E567FA8EF
:0A2A20007E617D007C001276D52255
:102A2A00120FF7122FF978C874FFF2087404F2082B
:102A3A007435F27BFE7A00790712005F127AC512AA
:102A4A0067FA78C874FFF2087403F20874C5F27B57
:102A5A00FE7A00790712005F127AC5127E6C78C876
:102A6A0074FFF2087403F20874D6F27BFE7A0079D6
:102A7A000712005F127AC57F507EC37D007C001268
:102A8A0076D57F8E1247E678C874FFF2087403F28F
:102A9A000874E7F27BFE7A00790712005F127AC5A2
:102AAA00127E611246557F507EC37D007C001276ED
:102ABA00D57F8E1247E678C874FFF2087403F208CD
:102ACA0074EAF27BFE7A00790712005F127AC51265
:102ADA007E611246ED7F507EC37D007C001276D562
:102AEA007F8E1247E678C874FFF2087403F20874FE
:102AFA00EDF27BFE7A00790712005F127AC5127E28
:102B0A00611248007F507EC37D007C001276D57F1B
:102B1A008E1247E678C874FFF2087403F20874F05C
:102B2A00F27BFE7A00790712005F127AC5127E6183
:102B3A001256857F507EC37D007C001276D5784A76
:102B4A00E2FE08E2FF7839E22FFF18E23EFE785FE4
:102B5A00E22FFF18E23EFE78737925120FEF122F4B
:102B6A00F978C874FFF2087403F208745EF27BFE07
:102B7A007A00790712005F127AC51267FA78C87468
:102B8A00FFF2087404F2087446F27BFE7A007907B1
:102B9A0012005F127AC51207F778C874FFF2087438
:102BAA0004F2087404F27838E2FF08E278CBCFF234
:102BBA0008EFF2784AE2FF08E278CDCFF208EFF2A6
:102BCA00785EE2FF08E278CFCFF208EFF27872E29D
:102BDA00FF08E278D1CFF208EFF27824E2FF08E2A8
:102BEA0078D3CFF208EFF27BFE7A00790712005F02
:102BFA00127AC57825E26410700218E27021127EFA
:102C0A006C78C874FFF2087404F2087413F27BFE3D
:102C1A007A00790712005F127AC5127DFC801F12B2
:102C2A007E6C78C874FFF2087404F2087424F27B8C
:102C3A00FE7A00790712005F127AC5127E567F88E3
:0A2C4A007E137D007C001276D52277
:1076D5008034E4FFFEFDFC78C5E2FB08E2F908E230
:1076E500FA08E2CBF8D3123B03402278C5E2FC0846
:1076F500E2FD08E2FE08E224FFFFEE34FFFEED3472
:0E770500FFFDEC34FFFC78C5123B1480C5225A
:10448D00C281C282C284C285C287C286C292C291D3
:10449D007FC63080151247E67F54127E18782DE2C4
:1044AD002401F218E23400F280081247E67F46122A
:1044BD007E187FCE3083151247E67F54127E187812
:1044CD003BE22401F218E23400F280081247E67F45
:1044DD0046127E187F963090151247E67F54127E55
:1044ED0018784DE22401F218E23400F280081247E8
:1044FD00E67F46127E187F9E3093141247E67F5456
:10450D00127E187861E22401F218E23400F22212D0
:08451D0047E67F46127E1822DA
:10452500C281D282C284D285C287D286C292D291FA
:104535007FC63080151247E67F54127E18782DE22B
:104545002401F218E23400F280081247E67F461291
:104555007E187FCE3083151247E67F54127E187879
:104565003BE22401F218E23400F280081247E67FAC
:1045750046127E187F963090151247E67F54127EBC
:1045850018784DE22401F218E23400F2800812474F
:10459500E67F46127E187F9E3093141247E67F54BD
:1045A500127E187861E22401F218E23400F2221238
:0845B50047E67F46127E182242
:1045BD00D281C282D284C285D287C286D292C29162
:1045CD007FC63080151247E67F54127E18782DE293
:1045DD002401F218E23400F280081247E67F4612F9
:1045ED007E187FCE3083151247E67F54127E1878E1
:1045FD003BE22401F218E23400F280081247E67F14
:10460D0046127E187F963090151247E67F54127E23
:10461D0018784DE22401F218E23400F280081247B6
:10462D00E67F46127E187F9E3093141247E67F5424
:10463D00127E187861E22401F218E23400F222129F
:08464D0047E67F46127E1822A9
:1055EE00D281D282D284D285D287D286D292D291E1
:1055FE007FC630800A1247E67F54127E188013123F
:10560E0047E67F46127E18782DE22401F218E23426
:10561E0000F27FCE30830A1247E67F54127E188046
:10562E00131247E67F46127E18783BE22401F218E9
:10563E00E23400F27F9630900A1247E67F54127ED3
:10564E001880131247E67F46127E18784DE2240129
:10565E00F218E23400F27F9E3093081247E67F5430
:10566E00027E181247E67F46127E187861E2240108
:07567E00F218E23400F222F1
:10465500C295C296C2A0C2A1C2A3C2A2C2A6C2A549
:104665007FC63094151247E67F54127E187839E2DA
:104675002401F218E23400F280081247E67F461260
:104685007E187FCE3097151247E67F54127E187834
:104695004BE22401F218E23400F280081247E67F6B
:1046A50046127E187F9630A4151247E67F54127E77
:1046B50018785FE22401F218E23400F2800812470C
:1046C500E67F46127E187F9E30A7141247E67F5478
:1046D500127E187873E22401F218E23400F22212F5
:0846E50047E67F46127E182211
:1046ED00C295D296C2A0D2A1C2A3D2A2C2A6D2A571
:1046FD007FC63094151247E67F54127E187839E242
:10470D002401F218E23400F280081247E67F4612C7
:10471D007E187FCE3097151247E67F54127E18789B
:10472D004BE22401F218E23400F280081247E67FD2
:10473D0046127E187F9630A4151247E67F54127EDE
:10474D0018785FE22401F218E23400F28008124773
:10475D00E67F46127E187F9E30A7141247E67F54DF
:10476D00127E187873E22401F218E23400F222125C
:08477D0047E67F46127E182278
:10480000D295C296D2A0C2A1D2A3C2A2D2A6C2A55C
:104810007FC63094151247E67F54127E187839E22D
:104820002401F218E23400F280081247E67F4612B3
:104830007E187FCE3097151247E67F54127E187887
:104840004BE22401F218E23400F280081247E67FBE
:1048500046127E187F9630A4151247E67F54127ECA
:1048600018785FE22401F218E23400F2800812475F
:10487000E67F46127E187F9E30A7141247E67F54CB
:10488000127E187873E22401F218E23400F2221248
:0848900047E67F46127E182264
:10568500D295D296D2A0D2A1D2A3D2A2D2A6D2A589
:105695007FC630940A1247E67F54127E1880131293
:1056A50047E67F46127E187839E22401F218E23483
:1056B50000F27FCE30970A1247E67F54127E18809B
:1056C500131247E67F46127E18784BE22401F21842
:1056D500E23400F27F9630A40A1247E67F54127E28
:1056E5001880131247E67F46127E18785FE2240180
:1056F500F218E23400F27F9E30A7081247E67F5485
:10570500027E181247E67F46127E187873E224015E
:07571500F218E23400F22259
:107BC500126B23126B6C126BB5126BFE785CE2FEC6
:107BD50008E2FF7871E22FFF18E23EFE7849E22FB6
:107BE500FF18E23EFE7837E22F7923F318E23E19BB
:027BF500F32279
:107BF700126C47126C90126CD9126D22786EE2FEED
:107C070008E2FF7883E22FFF18E23EFE785BE22F5F
:107C1700FF18E23EFE7847E22F792BF318E23E1970
:027C2700F32246
:10336700E47836F208F27848F208F2785CF208F26C
:103377007870F208F27846F208F2785AF208F27892
:103387006EF208F27882F208F2782AF208F27822CE
:10339700F208F2127BC5127BF7120FF7122FF9789A
:1033A700C874FFF2087403F208745EF27BFE7A00B9
:1033B700790712005F127AC51267FA78C874FFF2AC
:1033C700087403F208746FF27BFE7A007907120023
:1033D7005F127AC5127E6C78C874FFF2087403F224
:1033E700087480F27BFE7A00790712005F127AC5B3
:1033F7001207F778C874FFF2087403F2087491F2A1
:103407007BFE7A00790712005F127AC57823E2649F
:1034170010700218E27FC770211247E678C874FF60
:10342700F2087403F20874A2F27BFE7A007907129D
:10343700005F127AC5127DFC801F1247E678C874B8
:10344700FFF2087403F20874ABF27BFE7A00790787
:1034570012005F127AC5127E56782BE26410700252
:1034670018E27F9770211247E678C874FFF2087454
:1034770003F20874A2F27BFE7A00790712005F124A
:103487007AC5127DFC801F1247E678C874FFF208E0
:103497007403F20874ABF27BFE7A00790712005FBF
:1034A700127AC5127E567F887E137D007C000277D4
:0134B7001301
:106B2300C281C282C284C285C287C286C292C29116
:106B330030800B7837E22401F218E23400F230831C
:106B43000B7849E22401F218E23400F230900B781A
:106B53005DE22401F218E23400F230930B7871E223
:096B63002401F218E23400F222D0
:106B6C00C281D282C284D285C287D286C292D2918D
:106B7C0020800B7837E22401F218E23400F22083F3
:106B8C000B7849E22401F218E23400F220900B78E1
:106B9C005DE22401F218E23400F220930B7871E2EA
:096BAC002401F218E23400F22287
:106BB500D281C282D284C285D287C286D292C29144
:106BC50020800B7837E22401F218E23400F22083AA
:106BD5000B7849E22401F218E23400F220900B7898
:106BE5005DE22401F218E23400F220930B7871E2A1
:096BF5002401F218E23400F2223E
:106BFE00D281D282D284D285D287D286D292D291BB
:106C0E0020800B7837E22401F218E23400F2208360
:106C1E000B7849E22401F218E23400F220900B784E
:106C2E005DE22401F218E23400F220930B7871E257
:096C3E002401F218E23400F222F4
:106C4700C295C296C2A0C2A1C2A3C2A2C2A6C2A531
:106C570030940B7847E22401F218E23400F23097BF
:106C67000B785BE22401F218E23400F230A40B78CF
:106C77006FE22401F218E23400F230A70B7883E2C6
:096C87002401F218E23400F222AB
:106C9000C295D296C2A0D2A1C2A3D2A2C2A6D2A5A8
:106CA00020940B7847E22401F218E23400F2209796
:106CB0000B785BE22401F218E23400F220A40B7896
:106CC0006FE22401F218E23400F220A70B7883E28D
:096CD0002401F218E23400F22262
:106CD900D295C296D2A0C2A1D2A3C2A2D2A6C2A55F
:106CE90020940B7847E22401F218E23400F220974D
:106CF9000B785BE22401F218E23400F220A40B784D
:106D09006FE22401F218E23400F220A70B7883E243
:096D19002401F218E23400F22218
:106D2200D295D296D2A0D2A1D2A3D2A2D2A6D2A5D5
:106D320020940B7847E22401F218E23400F2209703
:106D42000B785BE22401F218E23400F220A40B7803
:106D52006FE22401F218E23400F220A70B7883E2FA
:096D62002401F218E23400F222CF
:1079A800E47836F208F27848F208F2785CF208F2E5
:1079B8007870F208F27846F208F2785AF208F2780B
:1079C8006EF208F27882F208F2782AF208F2782247
:0979D800F208F2120800020A2C68
:10080000120FF7122FF978C874FFF2087403F20878
:1008100074B4F27BFE7A00790712005F127AC51277
:1008200067FA78C874FFF2087403F20874C5F27BA3
:10083000FE7A00790712005F127AC5127E6C78C8C2
:1008400074FFF2087403F20874D6F27BFE7A007922
:100850000712005F127AC57F507EC37D007C0012B4
:1008600077137F8E1247E678C874FFF2087403F29C
:100870000874E7F27BFE7A00790712005F127AC5EE
:10088000127E611248987F507EC37D007C001277F3
:10089000137F8E1247E678C874FFF2087403F208DB
:1008A00074EAF27BFE7A00790712005F127AC512B1
:1008B0007E6112571C7F507EC37D007C001277132F
:1008C0007F8E1247E678C874FFF2087403F208744A
:1008D000EDF27BFE7A00790712005F127AC5127E74
:1008E000611258007F507EC37D007C001277137F19
:1008F0008E1247E678C874FFF2087403F20874F0A9
:10090000F27BFE7A00790712005F127AC5127E61CF
:100910001258977F507EC37D007C00127713120F10
:10092000F7122FF978C874FFF2087403F208745EA6
:10093000F27BFE7A00790712005F127AC51267FA1D
:1009400078C874FFF2087403F20874F3F27BFE7A3D
:1009500000790712005F127AC5785CE2FE08E2FFB8
:100960007871E22FFF18E23EFE7849E22FFF18E28D
:100970003EFE7837E22F79231207F178C874FFF230
:10098000087404F2087404F27836E2FF08E278CBC7
:10099000CFF208EFF27848E2FF08E278CDCFF20814
:1009A000EFF2785CE2FF08E278CFCFF208EFF2785E
:1009B00070E2FF08E278D1CFF208EFF27822E2FF8E
:1009C00008E278D3CFF208EFF27BFE7A00790712C3
:1009D000005F127AC57823E26410700218E2702179
:1009E000127E6C78C874FFF2087404F2087413F273
:1009F0007BFE7A00790712005F127AC5127DFC80B7
:100A00001F127E6C78C874FFF2087404F208742414
:100A1000F27BFE7A00790712005F127AC5127E56C9
:0C0A20007FA87E617D007C00127713220D
:100A2C00120FF7122FF978C874FFF2087404F20849
:100A3C007435F27BFE7A00790712005F127AC512C8
:100A4C0067FA78C874FFF2087403F20874C5F27B75
:100A5C00FE7A00790712005F127AC5127E6C78C894
:100A6C0074FFF2087403F20874D6F27BFE7A0079F4
:100A7C000712005F127AC57F507EC37D007C001286
:100A8C0077137F8E1247E678C874FFF2087403F26E
:100A9C000874E7F27BFE7A00790712005F127AC5C0
:100AAC00127E611249307F507EC37D007C0012772C
:100ABC00137F8E1247E678C874FFF2087403F208AD
:100ACC0074EAF27BFE7A00790712005F127AC51283
:100ADC007E6112592E7F507EC37D007C00127713ED
:100AEC007F8E1247E678C874FFF2087403F208741C
:100AFC00EDF27BFE7A00790712005F127AC5127E46
:100B0C00611259C57F507EC37D007C001277137F24
:100B1C008E1247E678C874FFF2087403F20874F07A
:100B2C00F27BFE7A00790712005F127AC5127E61A1
:100B3C00125A5C7F507EC37D007C00127713785A6A
:100B4C00E2FE08E2FF7847E22FFF18E23EFE786FE4
:100B5C00E22FFF18E23EFE7883E22F792B120FF181
:100B6C00122FF978C874FFF2087403F208745EF25D
:100B7C007BFE7A00790712005F127AC51267FA7849
:100B8C00C874FFF2087404F2087446F27BFE7A0013
:100B9C00790712005F127AC51207F778C874FFF252
:100BAC00087404F2087404F27846E2FF08E278CB89
:100BBC00CFF208EFF2785AE2FF08E278CDCFF208D4
:100BCC00EFF2786EE2FF08E278CFCFF208EFF2781E
:100BDC0082E2FF08E278D1CFF208EFF2782AE2FF46
:100BEC0008E278D3CFF208EFF27BFE7A0079071295
:100BFC00005F127AC5782BE26410700218E2702143
:100C0C00127E6C78C874FFF2087404F2087413F244
:100C1C007BFE7A00790712005F127AC5127DFC8088
:100C2C001F127E6C78C874FFF2087404F2087424E6
:100C3C00F27BFE7A00790712005F127AC5127E569B
:0C0C4C007FA87E617D007C0012771322DF
:107713008034E4FFFEFDFC78C5E2FB08E2F908E2F1
:10772300FA08E2CBF8D3123B03402278C5E2FC0807
:10773300E2FD08E2FE08E224FFFFEE34FFFEED3433
:0E774300FFFDEC34FFFC78C5123B1480C5221C
:10489800C281C282C284C285C287C286C292C291C4
:1048A8007FC63080151247E67F54127E187837E2AB
:1048B8002401F218E23400F280081247E67F46121B
:1048C8007E187FCE3083151247E67F54127E187803
:1048D80049E22401F218E23400F280081247E67F28
:1048E80046127E187F963090151247E67F54127E46
:1048F80018785DE22401F218E23400F280081247C9
:10490800E67F46127E187F9E3093141247E67F5446
:10491800127E187871E22401F218E23400F22212B1
:0849280047E67F46127E1822CB
:10571C00C281D282C284D285C287D286C292D291F1
:10572C007FC630800A1247E67F54127E188013120F
:10573C0047E67F46127E187837E22401F218E234ED
:10574C0000F27FCE30830A1247E67F54127E188017
:10575C00131247E67F46127E187849E22401F218AC
:10576C00E23400F27F9630900A1247E67F54127EA4
:10577C001880131247E67F46127E18785DE22401EA
:10578C00F218E23400F27F9E3093081247E67F5401
:10579C00027E181247E67F46127E187871E22401C9
:0757AC00F218E23400F222C2
:10580000D281C282D284C285D287C286D292C2910C
:105810007FC630800A1247E67F54127E188013122A
:1058200047E67F46127E187837E22401F218E23408
:1058300000F27FCE30830A1247E67F54127E188032
:10584000131247E67F46127E187849E22401F218C7
:10585000E23400F27F9630900A1247E67F54127EBF
:105860001880131247E67F46127E18785DE2240105
:10587000F218E23400F27F9E3093081247E67F541C
:10588000027E181247E67F46127E187871E22401E4
:07589000F218E23400F222DD
:10589700D281D282D284D285D287D286D292D29135
:1058A7007FC630800A1247E67F54127E1880131293
:1058B70047E67F46127E187837E22401F218E23471
:1058C70000F27FCE30830A1247E67F54127E18809B
:1058D700131247E67F46127E187849E22401F21830
:1058E700E23400F27F9630900A1247E67F54127E28
:1058F7001880131247E67F46127E18785DE224016E
:10590700F218E23400F27F9E3093081247E67F5484
:10591700027E181247E67F46127E187871E224014C
:07592700F218E23400F22245
:10493000C295C296C2A0C2A1C2A3C2A2C2A6C2A56B
:104940007FC63094151247E67F54127E187847E2EE
:104950002401F218E23400F280081247E67F461282
:104960007E187FCE3097151247E67F54127E187856
:104970005BE22401F218E23400F280081247E67F7D
:1049800046127E187F9630A4151247E67F54127E99
:1049900018786FE22401F218E23400F2800812471E
:1049A000E67F46127E187F9E30A7141247E67F549A
:1049B000127E187883E22401F218E23400F2221207
:0849C00047E67F46127E182233
:10592E00C295D296C2A0D2A1C2A3D2A2C2A6D2A51D
:10593E007FC630940A1247E67F54127E18801312E7
:10594E0047E67F46127E187847E22401F218E234C9
:10595E0000F27FCE30970A1247E67F54127E1880EF
:10596E00131247E67F46127E18785BE22401F21886
:10597E00E23400F27F9630A40A1247E67F54127E7C
:10598E001880131247E67F46127E18786FE22401C4
:10599E00F218E23400F27F9E30A7081247E67F54D9
:1059AE00027E181247E67F46127E187883E22401A3
:0759BE00F218E23400F222AE
:1059C500D295C296D2A0C2A1D2A3C2A2D2A6C2A586
:1059D5007FC630940A1247E67F54127E1880131250
:1059E50047E67F46127E187847E22401F218E23432
:1059F50000F27FCE30970A1247E67F54127E188058
:105A0500131247E67F46127E18785BE22401F218EE
:105A1500E23400F27F9630A40A1247E67F54127EE4
:105A25001880131247E67F46127E18786FE224012C
:105A3500F218E23400F27F9E30A7081247E67F5441
:105A4500027E181247E67F46127E187883E224010B
:075A5500F218E23400F22216
:105A5C00D295D296D2A0D2A1D2A3D2A2D2A6D2A5AE
:105A6C007FC630940A1247E67F54127E18801312B8
:105A7C0047E67F46127E187847E22401F218E2349A
:105A8C0000F27FCE30970A1247E67F54127E1880C0
:105A9C00131247E67F46127E18785BE22401F21857
:105AAC00E23400F27F9630A40A1247E67F54127E4D
:105ABC001880131247E67F46127E18786FE2240195
:105ACC00F218E23400F27F9E30A7081247E67F54AA
:105ADC00027E181247E67F46127E187883E2240174
:075AEC00F218E23400F2227F
:107C2900126D6B126DB4126DFD126E46786CE2FE28
:107C390008E2FF7881E22FFF18E23EFE7859E22F31
:107C4900FF18E23EFE7845E22F7929F318E23E1942
:027C5900F32214
:107C5B00126E8F126ED8126F21126F6A787EE2FE4F
:107C6B0008E2FF788FE22FFF18E23EFE786BE22FDF
:107C7B00FF18E23EFE7857E22F7935F318E23E19F2
:027C8B00F322E2
:1034B800E47844F208F27858F208F2786CF208F2EC
:1034C8007880F208F27856F208F2786AF208F27810
:1034D8007EF208F2788EF208F27834F208F2782850
:1034E800F208F2127C29127C5B120FF7122FF9787E
:1034F800C874FFF2087403F208745EF27BFE7A0067
:10350800790712005F127AC51267FA78C874FFF259
:10351800087403F208746FF27BFE7A0079071200D0
:103528005F127AC5127E6C78C874FFF2087403F2D1
:10353800087480F27BFE7A00790712005F127AC560
:103548001207F778C874FFF2087403F2087491F24E
:103558007BFE7A00790712005F127AC57829E26447
:1035680010700218E27FC770211247E678C874FF0E
:10357800F2087403F20874A2F27BFE7A007907124B
:10358800005F127AC5127DFC801F1247E678C87466
:10359800FFF2087403F20874ABF27BFE7A00790735
:1035A80012005F127AC5127E567835E264107002F6
:1035B80018E27F9770211247E678C874FFF2087402
:1035C80003F20874A2F27BFE7A00790712005F12F8
:1035D8007AC5127DFC801F1247E678C874FFF2088E
:1035E8007403F20874ABF27BFE7A00790712005F6D
:1035F800127AC5127E567F887E137D007C00027782
:013608005170
:106D6B00C280C281C283C284C287C290C292C293C4
:106D7B0030820B7845E22401F218E23400F23085C0
:106D8B000B7859E22401F218E23400F230860B78CA
:106D9B006DE22401F218E23400F230910B7881E2BB
:096DAB002401F218E23400F22286
:106DB400C280D281C283D284C287D290C292D2933B
:106DC40030820B7845E22401F218E23400F2308577
:106DD4000B7859E22401F218E23400F230860B7881
:106DE4006DE22401F218E23400F230910B7881E272
:096DF4002401F218E23400F2223D
:106DFD00D280C281D283C284D287C290D292C293F2
:106E0D0030820B7845E22401F218E23400F230852D
:106E1D000B7859E22401F218E23400F230860B7837
:106E2D006DE22401F218E23400F230910B7881E228
:096E3D002401F218E23400F222F3
:106E4600D280D281D283D284D287D290D292D29368
:106E560020820B7845E22401F218E23400F2208504
:106E66000B7859E22401F218E23400F220860B78FE
:106E76006DE22401F218E23400F220910B7881E2EF
:096E86002401F218E23400F222AA
:106E8F00C294C295C297C2A0C2A3C2A4C2A6C2A7EF
:106E9F0030960B7857E22401F218E23400F230A159
:106EAF000B786BE22401F218E23400F230A20B7877
:106EBF007FE22401F218E23400F230A50B788FE262
:096ECF002401F218E23400F22261
:106ED800C294D295C297D2A0C2A3D2A4C2A6D2A766
:106EE80030960B7857E22401F218E23400F230A110
:106EF8000B786BE22401F218E23400F230A20B782E
:106F08007FE22401F218E23400F230A50B788FE218
:096F18002401F218E23400F22217
:106F2100D294C295D297C2A0D2A3C2A4D2A6C2A71C
:106F310030960B7857E22401F218E23400F230A1C6
:106F41000B786BE22401F218E23400F230A20B78E4
:106F51007FE22401F218E23400F230A50B788FE2CF
:096F61002401F218E23400F222CE
:106F6A00D294D295D297D2A0D2A3D2A4D2A6D2A793
:106F7A0020960B7857E22401F218E23400F220A19D
:106F8A000B786BE22401F218E23400F220A20B78AB
:106F9A007FE22401F218E23400F220A50B788FE296
:096FAA002401F218E23400F22285
:1079E100E47844F208F27858F208F2786CF208F27E
:1079F1007880F208F27856F208F2786AF208F278A2
:107A01007EF208F2788EF208F27834F208F27828E1
:097A1100F208F2120C58021000F8
:100C5800120FF7122FF978C874FFF2087403F2081C
:100C680074B4F27BFE7A00790712005F127AC5121B
:100C780067FA78C874FFF2087403F20874C5F27B47
:100C8800FE7A00790712005F127AC5127E6C78C866
:100C980074FFF2087403F20874D6F27BFE7A0079C6
:100CA8000712005F127AC57F507EC37D007C001258
:100CB80077517F8E1247E678C874FFF2087403F202
:100CC8000874E7F27BFE7A00790712005F127AC592
:100CD800127E611249C87F507EC37D007C00127766
:100CE800517F8E1247E678C874FFF2087403F20841
:100CF80074EAF27BFE7A00790712005F127AC51255
:100D08007E61124A607F507EC37D007C001277515D
:100D18007F8E1247E678C874FFF2087403F20874ED
:100D2800EDF27BFE7A00790712005F127AC5127E17
:100D380061124AF87F507EC37D007C001277517F94
:100D48008E1247E678C874FFF2087403F20874F04C
:100D5800F27BFE7A00790712005F127AC5127E6173
:100D6800125AF37F507EC37D007C00127751120F18
:100D7800F7122FF978C874FFF2087403F208745E4A
:100D8800F27BFE7A00790712005F127AC51267FAC1
:100D980078C874FFF2087403F20874F3F27BFE7AE1
:100DA80000790712005F127AC5786CE2FE08E2FF4C
:100DB8007881E22FFF18E23EFE7859E22FFF18E211
:100DC8003EFE7845E22F79291207F178C874FFF2C0
:100DD800087404F2087404F27844E2FF08E278CB5D
:100DE800CFF208EFF27858E2FF08E278CDCFF208A8
:100DF800EFF2786CE2FF08E278CFCFF208EFF278F2
:100E080080E2FF08E278D1CFF208EFF27828E2FF1B
:100E180008E278D3CFF208EFF27BFE7A0079071266
:100E2800005F127AC57829E26410700218E2702116
:100E3800127E6C78C874FFF2087404F2087413F216
:100E48007BFE7A00790712005F127AC5127DFC805A
:100E58001F127E6C78C874FFF2087404F2087424B8
:100E6800F27BFE7A00790712005F127AC5127E566D
:0C0E78007FA87E617D007C001277512273
:10100000120FF7122FF978C874FFF2087404F2086F
:101010007435F27BFE7A00790712005F127AC512EE
:1010200067FA78C874FFF2087403F20874C5F27B9B
:10103000FE7A00790712005F127AC5127E6C78C8BA
:1010400074FFF2087403F20874D6F27BFE7A00791A
:101050000712005F127AC57F507EC37D007C0012AC
:1010600077517F8E1247E678C874FFF2087403F256
:101070000874E7F27BFE7A00790712005F127AC5E6
:10108000127E61124B907F507EC37D007C001277F0
:10109000517F8E1247E678C874FFF2087403F20895
:1010A00074EAF27BFE7A00790712005F127AC512A9
:1010B0007E61124C287F507EC37D007C00127751E8
:1010C0007F8E1247E678C874FFF2087403F2087442
:1010D000EDF27BFE7A00790712005F127AC5127E6C
:1010E00061124CC07F507EC37D007C001277517F1F
:1010F0008E1247E678C874FFF2087403F20874F0A1
:10110000F27BFE7A00790712005F127AC5127E61C7
:10111000125B8A7F507EC37D007C00127751786A13
:10112000E2FE08E2FF7857E22FFF18E23EFE787FEA
:10113000E22FFF18E23EFE788FE22F7935120FF191
:10114000122FF978C874FFF2087403F208745EF283
:101150007BFE7A00790712005F127AC51267FA786F
:10116000C874FFF2087404F2087446F27BFE7A0039
:10117000790712005F127AC51207F778C874FFF278
:10118000087404F2087404F27856E2FF08E278CB9F
:10119000CFF208EFF2786AE2FF08E278CDCFF208EA
:1011A000EFF2787EE2FF08E278CFCFF208EFF27834
:1011B0008EE2FF08E278D1CFF208EFF27834E2FF56
:1011C00008E278D3CFF208EFF27BFE7A00790712BB
:1011D000005F127AC57835E26410700218E270215F
:1011E000127E6C78C874FFF2087404F2087413F26B
:1011F0007BFE7A00790712005F127AC5127DFC80AF
:101200001F127E6C78C874FFF2087404F20874240C
:10121000F27BFE7A00790712005F127AC5127E56C1
:0C1220007FA87E617D007C0012775122C7
:107751008034E4FFFEFDFC78C5E2FB08E2F908E2B3
:10776100FA08E2CBF8D3123B03402278C5E2FC08C9
:10777100E2FD08E2FE08E224FFFFEE34FFFEED34F5
:0E778100FFFDEC34FFFC78C5123B1480C522DE
:1049C800C280C281C283C284C287C290C292C2938B
:1049D8007FC63082151247E67F54127E187845E26A
:1049E8002401F218E23400F280081247E67F4612EA
:1049F8007E187FCE3085151247E67F54127E1878D0
:104A080059E22401F218E23400F280081247E67FE6
:104A180046127E187F963086151247E67F54127E1E
:104A280018786DE22401F218E23400F28008124787
:104A3800E67F46127E187F9E3091141247E67F5417
:104A4800127E187881E22401F218E23400F2221270
:084A580047E67F46127E18229A
:104A6000C280D281C283D284C287D290C292D293B2
:104A70007FC63082151247E67F54127E187845E2D1
:104A80002401F218E23400F280081247E67F461251
:104A90007E187FCE3085151247E67F54127E187837
:104AA00059E22401F218E23400F280081247E67F4E
:104AB00046127E187F963086151247E67F54127E86
:104AC00018786DE22401F218E23400F280081247EF
:104AD000E67F46127E187F9E3091141247E67F547F
:104AE000127E187881E22401F218E23400F22212D8
:084AF00047E67F46127E182202
:104AF800D280C281D283C284D287C290D292C2931A
:104B08007FC63082151247E67F54127E187845E238
:104B18002401F218E23400F280081247E67F4612B8
:104B28007E187FCE3085151247E67F54127E18789E
:104B380059E22401F218E23400F280081247E67FB5
:104B480046127E187F963086151247E67F54127EED
:104B580018786DE22401F218E23400F28008124756
:104B6800E67F46127E187F9E3091141247E67F54E6
:104B7800127E187881E22401F218E23400F222123F
:084B880047E67F46127E182269
:105AF300D280D281D283D284D287D290D292D293CF
:105B03007FC630820A1247E67F54127E1880131232
:105B130047E67F46127E187845E22401F218E23404
:105B230000F27FCE30850A1247E67F54127E18803A
:105B3300131247E67F46127E187859E22401F218C1
:105B4300E23400F27F9630860A1247E67F54127ED3
:105B53001880131247E67F46127E18786DE22401FF
:105B6300F218E23400F27F9E3091081247E67F5428
:105B7300027E181247E67F46127E187881E22401DE
:075B8300F218E23400F222E7
:104B9000C294C295C297C2A0C2A3C2A4C2A6C2A711
:104BA0007FC63096151247E67F54127E187857E27A
:104BB0002401F218E23400F280081247E67F461220
:104BC0007E187FCE30A1151247E67F54127E1878EA
:104BD0006BE22401F218E23400F280081247E67F0B
:104BE00046127E187F9630A2151247E67F54127E39
:104BF00018787FE22401F218E23400F280081247AC
:104C0000E67F46127E187F9E30A5141247E67F5439
:104C1000127E18788FE22401F218E23400F2221298
:084C200047E67F46127E1822D0
:104C2800C294D295C297D2A0C2A3D2A4C2A6D2A738
:104C38007FC63096151247E67F54127E187857E2E1
:104C48002401F218E23400F280081247E67F461287
:104C58007E187FCE30A1151247E67F54127E187851
:104C68006BE22401F218E23400F280081247E67F72
:104C780046127E187F9630A2151247E67F54127EA0
:104C880018787FE22401F218E23400F28008124713
:104C9800E67F46127E187F9E30A5141247E67F54A1
:104CA800127E18788FE22401F218E23400F2221200
:084CB80047E67F46127E182238
:104CC000D294C295D297C2A0D2A3C2A4D2A6C2A7A0
:104CD0007FC63096151247E67F54127E187857E249
:104CE0002401F218E23400F280081247E67F4612EF
:104CF0007E187FCE30A1151247E67F54127E1878B9
:104D00006BE22401F218E23400F280081247E67FD9
:104D100046127E187F9630A2151247E67F54127E07
:104D200018787FE22401F218E23400F2800812477A
:104D3000E67F46127E187F9E30A5141247E67F5408
:104D4000127E18788FE22401F218E23400F2221267
:084D500047E67F46127E18229F
:105B8A00D294D295D297D2A0D2A3D2A4D2A6D2A787
:105B9A007FC630960A1247E67F54127E1880131287
:105BAA0047E67F46127E187857E22401F218E2345B
:105BBA0000F27FCE30A10A1247E67F54127E188087
:105BCA00131247E67F46127E18786BE22401F21818
:105BDA00E23400F27F9630A20A1247E67F54127E20
:105BEA001880131247E67F46127E18787FE2240156
:105BFA00F218E23400F27F9E30A5081247E67F547D
:105C0A00027E181247E67F46127E18788FE2240138
:075C1A00F218E23400F2224F
:10778F0012478512652C7898E2FE08E2FF78A3E293
:10779F002FFF18E23EFE788DE22FFF18E23EFE78B3
:1077AF007DE22FFF18E23EFE7869E22FFF18E23EDE
:0E77BF00FE7855E22F7933F318E23E19F322DB
:1078000012658D1265EE78A0E2FE08E2FF78A9E22B
:107810002FFF18E23EFE7897E22FFF18E23EFE7837
:107820008BE22FFF18E23EFE787BE22FFF18E23E4C
:0E783000FE7867E22F7943F318E23E19F32247
:10168400E47854F208F27868F208F2787CF208F20E
:10169400788CF208F27898F208F278A2F208F278DC
:1016A40066F208F2787AF208F2788AF208F278960A
:1016B400F208F278A0F208F278A8F208F27842F27E
:1016C40008F27832F208F212778F127800120FF7CC
:1016D400122FF978C874FFF2087403F208745EF2EA
:1016E4007BFE7A00790712005F127AC51267FA78D6
:1016F400C874FFF2087403F208746FF27BFE7A0078
:10170400790712005F127AC5127E6C78C874FFF2F2
:10171400087403F2087480F27BFE7A0079071200E1
:101724005F127AC51207F778C874FFF2087403F2DF
:10173400087491F27BFE7A00790712005F127AC571
:101744007833E2640C700218E27FC770211247E616
:1017540078C874FFF2087403F20874A2F27BFE7A6C
:1017640000790712005F127AC5127DFC801F1247B0
:10177400E678C874FFF2087403F20874ABF27BFED7
:101784007A00790712005F127AC5127E567843E216
:10179400640C700218E27F9770211247E678C874CF
:1017A400FFF2087403F20874A2F27BFE7A00790750
:1017B40012005F127AC5127DFC801F1247E678C8BA
:1017C40074FFF2087403F20874ABF27BFE7A0079BA
:1017D4000712005F127AC5127E567F887E137D0041
:0517E4007C0002783ECC
:10478500C280C282C284C287C291C29330810B7833
:1047950055E22401F218E23400F230830B7869E225
:1047A5002401F218E23400F230850B787DE2240111
:1047B500F218E23400F230860B788DE22401F2180B
:1047C500E23400F230900B7899E22401F218E234D9
:1047D50000F230920B78A3E22401F218E23400F2E1
:0147E50022B1
:10652C00D280D282D284D287D291D29320810B781E
:10653C0055E22401F218E23400F220830B7869E270
:10654C002401F218E23400F220850B787DE224015C
:10655C00F218E23400F220860B788DE22401F21856
:10656C00E23400F220900B7899E22401F218E23424
:10657C0000F220920B78A3E22401F218E23400F22C
:01658C0022EC
:10658D00C294C296C2A0C2A3C2A5C2A730950B7871
:10659D0067E22401F218E23400F230970B787BE2C7
:1065AD002401F218E23400F230A10B788BE22401C1
:1065BD00F218E23400F230A20B7897E22401F218BF
:1065CD00E23400F230A40B78A1E22401F218E23497
:1065DD0000F230A60B78A9E22401F218E23400F2A1
:0165ED00228B
:1065EE00D294D296D2A0D2A3D2A5D2A720950B78C0
:1065FE0067E22401F218E23400F220970B787BE276
:10660E002401F218E23400F220A10B788BE224016F
:10661E00F218E23400F220A20B7897E22401F2186D
:10662E00E23400F220A40B78A1E22401F218E23445
:10663E0000F220A60B78A9E22401F218E23400F24F
:01664E002229
:1007A200E47854F208F27868F208F2787CF208F2FF
:1007B200788CF208F27898F208F278A2F208F278CD
:1007C20066F208F2787AF208F2788AF208F27896FB
:1007D200F208F278A0F208F278A8F208F27842F26F
:0D07E20008F27832F208F2122C54023000B6
:102C5400120FF7122FF978C874FFF2087403F20800
:102C640074B4F27BFE7A00790712005F127AC512FF
:102C740067FA78C874FFF2087403F20874C5F27B2B
:102C8400FE7A00790712005F127AC5127E6C78C84A
:102C940074FFF2087403F20874D6F27BFE7A0079AA
:102CA4000712005F127AC51207F778C874FFF2089A
:102CB4007404F2087457F27BFE7A00790712005FFD
:102CC400127AC57F507EC37D007C0012783E7F8ED1
:102CD4001247E678C874FFF2087404F2087468F2C4
:102CE4007BFE7A00790712005F127AC5127E6112A8
:102CF4003D057F507EC37D007C0012783E7F8E129E
:102D040047E678C874FFF2087404F208746AF27B28
:102D1400FE7A00790712005F127AC5127E61123EB4
:102D2400B57F507EC37D007C0012783E7898E2FE29
:102D340008E2FF78A3E22FFF18E23EFE788DE22F2F
:102D4400FF18E23EFE787DE22FFF18E23EFE78692E
:102D5400E22FFF18E23EFE7855E22F7933120FF18D
:102D6400122FF978C874FFF2087403F208745EF243
:102D74007BFE7A00790712005F127AC51267FA782F
:102D8400C874FFF2087403F20874F3F27BFE7A004D
:102D9400790712005F127AC51207F778C874FFF238
:102DA400087404F208746CF27854E2FF08E278CBF9
:102DB400CFF208EFF27868E2FF08E278CDCFF208AC
:102DC400EFF2787CE2FF08E278CFCFF208EFF278F6
:102DD4008CE2FF08E278D1CFF208EFF27898E2FFB4
:102DE40008E278D3CFF208EFF278A2E2FF08E278A3
:102DF400D5CFF208EFF27832E2FF08E278D7CFF2CB
:102E040008EFF27BFE7A00790712005F127AC57828
:102E140033E2640C700218E27021127E6C78C8747C
:102E2400FFF2087404F2087413F27BFE7A00790747
:102E340012005F127AC5127DFC801F127E6C78C866
:102E440074FFF2087404F2087424F27BFE7A0079A9
:102E54000712005F127AC5127E567FA87E617D003C
:062E64007C0012783E2202
:10300000120FF7122FF978C874FFF2087404F2084F
:103010007435F27BFE7A00790712005F127AC512CE
:1030200067FA78C874FFF2087403F20874C5F27B7B
:10303000FE7A00790712005F127AC5127E6C78C89A
:1030400074FFF2087403F20874D6F27BFE7A0079FA
:103050000712005F127AC51207F778C874FFF208EA
:103060007404F2087457F27BFE7A00790712005F4D
:10307000127AC57F507EC37D007C0012783E7F8E21
:103080001247E678C874FFF2087404F2087468F214
:103090007BFE7A00790712005F127AC5127E6112F8
:1030A0003DDD7FA87E617D007C0012783E7F8E1220
:1030B00047E678C874FFF2087404F208746AF27B79
:1030C000FE7A00790712005F127AC5127E61124003
:1030D000007FA87E617D007C0012783E78A0E2FE31
:1030E00008E2FF78A9E22FFF18E23EFE7897E22F70
:1030F000FF18E23EFE788BE22FFF18E23EFE787B5F
:10310000E22FFF18E23EFE7867E22F7943120FF1BB
:10311000122FF978C874FFF2087403F208745EF293
:103120007BFE7A00790712005F127AC51267FA787F
:10313000C874FFF2087404F2087446F27BFE7A0049
:10314000790712005F127AC51207F778C874FFF288
:10315000087404F208746CF27866E2FF08E278CB37
:10316000CFF208EFF2787AE2FF08E278CDCFF208EA
:10317000EFF2788AE2FF08E278CFCFF208EFF27838
:1031800096E2FF08E278D1CFF208EFF27898E2FFFA
:1031900008E278D3CFF208EFF278A2E2FF08E278F3
:1031A000D5CFF208EFF27842E2FF08E278D7CFF20B
:1031B00008EFF27BFE7A00790712005F127AC57879
:1031C00043E2640C700218E27021127E6C78C874BD
:1031D000FFF2087404F2087413F27BFE7A00790798
:1031E00012005F127AC5127DFC801F127E6C78C8B7
:1031F00074FFF2087404F2087424F27BFE7A0079FA
:103200000712005F127AC5127E567F887E137D00FA
:063210007C0012783E2252
:10783E008034E4FFFEFDFC78C5E2FB08E2F908E2C5
:10784E00FA08E2CBF8D3123B03402278C5E2FC08DB
:10785E00E2FD08E2FE08E224FFFFEE34FFFEED3407
:0E786E00FFFDEC34FFFC78C5123B1480C522F0
:103D0500C280C282C284C287C291C2937FC63081FB
:103D1500151247E67F54127E187855E22401F218F1
:103D2500E23400F280081247E67F46127E187FCE05
:103D35003083151247E67F54127E187869E2240114
:103D4500F218E23400F280081247E67F46127E1828
:103D55007F963085151247E67F54127E18787DE2EE
:103D65002401F218E23400F280081247E67F461279
:103D75007E187F9E3086151247E67F54127E18788E
:103D85008DE22401F218E23400F280081247E67F42
:103D950046127E187FD63090151247E67F54127E64
:103DA500187899E22401F218E23400F280081247EB
:103DB500E67F46127E187FDE3092141247E67F5466
:103DC500127E1878A3E22401F218E23400F22212DE
:083DD50047E67F46127E18222A
:103EB500D280D282D284D287D291D2937FC63081EA
:103EC5000A1247E67F54127E1880131247E67F4692
:103ED500127E187855E22401F218E23400F27FCE02
:103EE50030830A1247E67F54127E1880131247E684
:103EF5007F46127E187869E22401F218E23400F256
:103F05007F9630850A1247E67F54127E1880131279
:103F150047E67F46127E18787DE22401F218E234E6
:103F250000F27F9E30860A1247E67F54127E188083
:103F3500131247E67F46127E18788DE22401F218A7
:103F4500E23400F27FD630900A1247E67F54127EA3
:103F55001880131247E67F46127E187899E22401ED
:103F6500F218E23400F27FDE3092081247E67F5401
:103F7500027E181247E67F46127E1878A3E22401D6
:073F8500F218E23400F22201
:103DDD00C294C296C2A0C2A3C2A5C2A77FC6309587
:103DED00151247E67F54127E187867E22401F21807
:103DFD00E23400F280081247E67F46127E187FCE2D
:103E0D003097151247E67F54127E18787BE2240115
:103E1D00F218E23400F280081247E67F46127E184F
:103E2D007F9630A1151247E67F54127E18788BE2EB
:103E3D002401F218E23400F280081247E67F4612A0
:103E4D007E187F9E30A2151247E67F54127E187899
:103E5D0097E22401F218E23400F280081247E67F5F
:103E6D0046127E187FD630A4151247E67F54127E77
:103E7D001878A1E22401F218E23400F2800812470A
:103E8D00E67F46127E187FDE30A6141247E67F5479
:103E9D00127E1878A9E22401F218E23400F22212FF
:083EAD0047E67F46127E182251
:10400000D294D296D2A0D2A3D2A5D2A77FC6309501
:104010000A1247E67F54127E1880131247E67F4645
:10402000127E187867E22401F218E23400F27FCEA3
:1040300030970A1247E67F54127E1880131247E623
:104040007F46127E18787BE22401F218E23400F2F7
:104050007F9630A10A1247E67F54127E1880131211
:1040600047E67F46127E18788BE22401F218E2348C
:1040700000F27F9E30A20A1247E67F54127E18801B
:10408000131247E67F46127E187897E22401F21851
:10409000E23400F27FD630A40A1247E67F54127E43
:1040A0001880131247E67F46127E1878A1E2240199
:1040B000F218E23400F27FDE30A6081247E67F54A1
:1040C000027E181247E67F46127E1878A9E2240184
:0740D000F218E23400F222B5
:107C8D00126FB312700012704912709278A6E2FE54
:107C9D0008E2FF78ADE22FFF18E23EFE789FE22F5B
:107CAD00FF18E23EFE7895E22F7979F318E23E193E
:027CBD00F322B0
:107CBF001270DB12712412716D1271B678AAE2FE86
:107CCF0008E2FF78B1E22FFF18E23EFE78A5E22F1F
:107CDF00FF18E23EFE789DE22F7989F318E23E19F4
:027CEF00F3227E
:10360900E47894F208F2789EF208F278A6F208F2C9
:1036190078ACF208F2789CF208F278A4F208F27811
:10362900AAF208F278B0F208F27888F208F278780B
:10363900F208F2127C8D127CBF120FF7122FF97863
:10364900C874FFF2087403F208745EF27BFE7A0014
:10365900790712005F127AC51267FA78C874FFF207
:10366900087403F208746FF27BFE7A00790712007E
:103679005F127AC5127E6C78C874FFF2087403F27F
:10368900087480F27BFE7A00790712005F127AC50E
:103699001207F778C874FFF2087403F2087491F2FC
:1036A9007BFE7A00790712005F127AC57879E264A5
:1036B90010700218E27FC770211247E678C874FFBC
:1036C900F2087403F20874A2F27BFE7A00790712F9
:1036D900005F127AC5127DFC801F1247E678C87414
:1036E900FFF2087403F20874ABF27BFE7A007907E3
:1036F90012005F127AC5127E567889E26410700250
:1037090018E27F9770211247E678C874FFF20874AF
:1037190003F20874A2F27BFE7A00790712005F12A5
:103729007AC5127DFC801F1247E678C874FFF2083B
:103739007403F20874ABF27BFE7A00790712005F1A
:10374900127AC5127E567F887E137D007C0002782E
:013759007CF3
:106FB300C280C281C283C284C287C290C292C2937A
:106FC30020820B7895E22401F218E23400F2208546
:106FD3000B789FE22401F218E23400F220860B784A
:106FE300A7E22401F218E23400F220910B78ADE21B
:096FF3002401F218E23400F2223C
:10700000C280D281C283D284C287D290C292D293EC
:1070100020820B7895E22401F218E23400F22085F8
:107020000B789FE22401F218E23400F220860B78FC
:10703000A7E22401F218E23400F220910B78ADE2CD
:097040002401F218E23400F222EE
:10704900D280C281D283C284D287C290D292C293A3
:1070590020820B7895E22401F218E23400F22085AF
:107069000B789FE22401F218E23400F220860B78B3
:10707900A7E22401F218E23400F220910B78ADE284
:097089002401F218E23400F222A5
:10709200D280D281D283D284D287D290D292D2931A
:1070A20030820B7895E22401F218E23400F2308546
:1070B2000B789FE22401F218E23400F230860B785A
:1070C200A7E22401F218E23400F230910B78ADE22B
:0970D2002401F218E23400F2225C
:1070DB00C294C295C297C2A0C2A3C2A4C2A6C2A7A1
:1070EB0020960B789DE22401F218E23400F220A1E5
:1070FB000B78A5E22401F218E23400F220A20B78FF
:10710B00ABE22401F218E23400F220A50B78B1E2D5
:09711B002401F218E23400F22212
:10712400C294D295C297D2A0C2A3D2A4C2A6D2A717
:1071340020960B789DE22401F218E23400F220A19B
:107144000B78A5E22401F218E23400F220A20B78B5
:10715400ABE22401F218E23400F220A50B78B1E28C
:097164002401F218E23400F222C9
:10716D00D294C295D297C2A0D2A3C2A4D2A6C2A7CE
:10717D0020960B789DE22401F218E23400F220A152
:10718D000B78A5E22401F218E23400F220A20B786C
:10719D00ABE22401F218E23400F220A50B78B1E243
:0971AD002401F218E23400F22280
:1071B600D294D295D297D2A0D2A3D2A4D2A6D2A745
:1071C60030960B789DE22401F218E23400F230A1E9
:1071D6000B78A5E22401F218E23400F230A20B7813
:1071E600ABE22401F218E23400F230A50B78B1E2EA
:0971F6002401F218E23400F22237
:107A1A00E47894F208F2789EF208F278A6F208F274
:107A2A0078ACF208F2789CF208F278A4F208F278BC
:107A3A00AAF208F278B0F208F27888F208F27878B6
:097A4A00F208F212122C02145889
:10122C00120FF7122FF978C874FFF2087403F20842
:10123C0074B4F27BFE7A00790712005F127AC51241
:10124C0067FA78C874FFF2087403F20874C5F27B6D
:10125C00FE7A00790712005F127AC5127E6C78C88C
:10126C0074FFF2087403F20874D6F27BFE7A0079EC
:10127C000712005F127AC57F507EC37D007C00127E
:10128C00787C7F8E1247E678C874FFF2087403F2FC
:10129C000874E7F27BFE7A00790712005F127AC5B8
:1012AC00127E61125C217F507EC37D007C0012781F
:1012BC007C7F8E1247E678C874FFF2087403F2083C
:1012CC0074EAF27BFE7A00790712005F127AC5127B
:1012DC007E61125CB87F507EC37D007C0012787CEE
:1012EC007F8E1247E678C874FFF2087403F2087414
:1012FC00EDF27BFE7A00790712005F127AC5127E3E
:10130C0061125D4F7F507EC37D007C0012787C7F24
:10131C008E1247E678C874FFF2087403F20874F072
:10132C00F27BFE7A00790712005F127AC5127E6199
:10133C00124D587F507EC37D007C0012787C120FBA
:10134C00F7122FF978C874FFF2087403F208745E70
:10135C00F27BFE7A00790712005F127AC51267FAE7
:10136C0078C874FFF2087403F20874F3F27BFE7A07
:10137C0000790712005F127AC578A6E2FE08E2FF38
:10138C0078ADE22FFF18E23EFE789FE22FFF18E2C5
:10139C003EFE7895E22F79791207F178C874FFF246
:1013AC00087404F2087404F27894E2FF08E278CB33
:1013BC00CFF208EFF2789EE2FF08E278CDCFF20888
:1013CC00EFF278A6E2FF08E278CFCFF208EFF278DE
:1013DC00ACE2FF08E278D1CFF208EFF27878E2FFC6
:1013EC0008E278D3CFF208EFF27BFE7A007907128D
:1013FC00005F127AC57879E26410700218E27021ED
:10140C00127E6C78C874FFF2087404F2087413F23C
:10141C007BFE7A00790712005F127AC5127DFC8080
:10142C001F127E6C78C874FFF2087404F2087424DE
:10143C00F27BFE7A00790712005F127AC5127E5693
:0C144C007FA87E617D007C0012787C226D
:10145800120FF7122FF978C874FFF2087404F20813
:101468007435F27BFE7A00790712005F127AC51292
:1014780067FA78C874FFF2087403F20874C5F27B3F
:10148800FE7A00790712005F127AC5127E6C78C85E
:1014980074FFF2087403F20874D6F27BFE7A0079BE
:1014A8000712005F127AC57F507EC37D007C001250
:1014B800787C7F8E1247E678C874FFF2087403F2CE
:1014C8000874E7F27BFE7A00790712005F127AC58A
:1014D800127E61125DE67F507EC37D007C0012782B
:1014E8007C7F8E1247E678C874FFF2087403F2080E
:1014F80074EAF27BFE7A00790712005F127AC5124D
:101508007E61125E7D7F507EC37D007C0012787CF8
:101518007F8E1247E678C874FFF2087403F20874E5
:10152800EDF27BFE7A00790712005F127AC5127E0F
:1015380061125F147F507EC37D007C0012787C7F2F
:101548008E1247E678C874FFF2087403F20874F044
:10155800F27BFE7A00790712005F127AC5127E616B
:10156800124DF07F507EC37D007C0012787C78A4F9
:10157800E2FE08E2FF789DE22FFF18E23EFE78AB1C
:10158800E22FFF18E23EFE78B1E22F7989120FF1BF
:10159800122FF978C874FFF2087403F208745EF227
:1015A8007BFE7A00790712005F127AC51267FA7813
:1015B800C874FFF2087404F2087446F27BFE7A00DD
:1015C800790712005F127AC51207F778C874FFF21C
:1015D800087404F2087404F2789CE2FF08E278CBFD
:1015E800CFF208EFF278A4E2FF08E278CDCFF20854
:1015F800EFF278AAE2FF08E278CFCFF208EFF278AC
:10160800B0E2FF08E278D1CFF208EFF27888E2FF83
:1016180008E278D3CFF208EFF27BFE7A007907125E
:10162800005F127AC57889E26410700218E27021AE
:10163800127E6C78C874FFF2087404F2087413F20E
:101648007BFE7A00790712005F127AC5127DFC8052
:101658001F127E6C78C874FFF2087404F2087424B0
:10166800F27BFE7A00790712005F127AC5127E5665
:0C1678007FA87E617D007C0012787C223F
:10787C008034E4FFFEFDFC78C5E2FB08E2F908E287
:10788C00FA08E2CBF8D3123B03402278C5E2FC089D
:10789C00E2FD08E2FE08E224FFFFEE34FFFEED34C9
:0E78AC00FFFDEC34FFFC78C5123B1480C522B2
:105C2100C280C281C283C284C287C290C292C2931F
:105C31007FC630820A1247E67F54127E1880131203
:105C410047E67F46127E187895E22401F218E23485
:105C510000F27FCE30850A1247E67F54127E18800B
:105C6100131247E67F46127E18789FE22401F2184C
:105C7100E23400F27F9630860A1247E67F54127EA4
:105C81001880131247E67F46127E1878A7E2240196
:105C9100F218E23400F27F9E3091081247E67F54F9
:105CA100027E181247E67F46127E1878ADE2240183
:075CB100F218E23400F222B8
:105CB800C280D281C283D284C287D290C292D29348
:105CC8007FC630820A1247E67F54127E188013126C
:105CD80047E67F46127E187895E22401F218E234EE
:105CE80000F27FCE30850A1247E67F54127E188074
:105CF800131247E67F46127E18789FE22401F218B5
:105D0800E23400F27F9630860A1247E67F54127E0C
:105D18001880131247E67F46127E1878A7E22401FE
:105D2800F218E23400F27F9E3091081247E67F5461
:105D3800027E181247E67F46127E1878ADE22401EB
:075D4800F218E23400F22220
:105D4F00D280C281D283C284D287C290D292C293B0
:105D5F007FC630820A1247E67F54127E18801312D4
:105D6F0047E67F46127E187895E22401F218E23456
:105D7F0000F27FCE30850A1247E67F54127E1880DC
:105D8F00131247E67F46127E18789FE22401F2181D
:105D9F00E23400F27F9630860A1247E67F54127E75
:105DAF001880131247E67F46127E1878A7E2240167
:105DBF00F218E23400F27F9E3091081247E67F54CA
:105DCF00027E181247E67F46127E1878ADE2240154
:075DDF00F218E23400F22289
:104D5800D280D281D283D284D287D290D292D29377
:104D68007FC63082151247E67F54127E187895E286
:104D78002401F218E23400F280081247E67F461256
:104D88007E187FCE3085151247E67F54127E18783C
:104D98009FE22401F218E23400F280081247E67F0D
:104DA80046127E187F963086151247E67F54127E8B
:104DB8001878A7E22401F218E23400F280081247BA
:104DC800E67F46127E187F9E3091141247E67F5484
:104DD800127E1878ADE22401F218E23400F22212B1
:084DE80047E67F46127E182207
:105DE600C294C295C297C2A0C2A3C2A4C2A6C2A7A9
:105DF6007FC630960A1247E67F54127E1880131229
:105E060047E67F46127E18789DE22401F218E234B6
:105E160000F27FCE30A10A1247E67F54127E188028
:105E2600131247E67F46127E1878A5E22401F2187F
:105E3600E23400F27F9630A20A1247E67F54127EC1
:105E46001880131247E67F46127E1878ABE22401CB
:105E5600F218E23400F27F9E30A5081247E67F541E
:105E6600027E181247E67F46127E1878B1E22401B8
:075E7600F218E23400F222F1
:105E7D00C294D295C297D2A0C2A3D2A4C2A6D2A7D1
:105E8D007FC630960A1247E67F54127E1880131291
:105E9D0047E67F46127E18789DE22401F218E2341F
:105EAD0000F27FCE30A10A1247E67F54127E188091
:105EBD00131247E67F46127E1878A5E22401F218E8
:105ECD00E23400F27F9630A20A1247E67F54127E2A
:105EDD001880131247E67F46127E1878ABE2240134
:105EED00F218E23400F27F9E30A5081247E67F5487
:105EFD00027E181247E67F46127E1878B1E2240121
:075F0D00F218E23400F22259
:105F1400D294C295D297C2A0D2A3C2A4D2A6C2A739
:105F24007FC630960A1247E67F54127E18801312F9
:105F340047E67F46127E18789DE22401F218E23487
:105F440000F27FCE30A10A1247E67F54127E1880F9
:105F5400131247E67F46127E1878A5E22401F21850
:105F6400E23400F27F9630A20A1247E67F54127E92
:105F74001880131247E67F46127E1878ABE224019C
:105F8400F218E23400F27F9E30A5081247E67F54EF
:105F9400027E181247E67F46127E1878B1E2240189
:075FA400F218E23400F222C2
:104DF000D294D295D297D2A0D2A3D2A4D2A6D2A72F
:104E00007FC63096151247E67F54127E18789DE2D1
:104E10002401F218E23400F280081247E67F4612BD
:104E20007E187FCE30A1151247E67F54127E187887
:104E3000A5E22401F218E23400F280081247E67F6E
:104E400046127E187F9630A2151247E67F54127ED6
:104E50001878ABE22401F218E23400F2800812471D
:104E6000E67F46127E187F9E30A5141247E67F54D7
:104E7000127E1878B1E22401F218E23400F2221214
:084E800047E67F46127E18226E
:107CF1001271FF1272481272911272DA7886E2FEE4
:107D010008E2FF7893E22FFF18E23EFE7877E22F38
:107D1100FF18E23EFE7865E22F7941F318E23E1941
:027D2100F3224B
:107D230012732312736C1273B51273FE7890E2FE12
:107D330008E2FF789BE22FFF18E23EFE7885E22FF0
:107D4300FF18E23EFE7875E22F7953F318E23E19ED
:027D5300F32219
:10380000E47864F208F27876F208F27886F208F248
:103810007892F208F27874F208F27884F208F2787A
:1038200090F208F2789AF208F27852F208F27840B0
:10383000F208F2127CF1127D23120FF7122FF978A1
:10384000C874FFF2087403F208745EF27BFE7A001B
:10385000790712005F127AC51267FA78C874FFF20E
:10386000087403F208746FF27BFE7A007907120085
:103870005F127AC5127E6C78C874FFF2087403F286
:10388000087480F27BFE7A00790712005F127AC515
:103890001207F778C874FFF2087403F2087491F203
:1038A0007BFE7A00790712005F127AC57841E264E4
:1038B00010700218E27FC770211247E678C874FFC3
:1038C000F2087403F20874A2F27BFE7A0079071200
:1038D000005F127AC5127DFC801F1247E678C8741B
:1038E000FFF2087403F20874ABF27BFE7A007907EA
:1038F00012005F127AC5127E567853E2641070028D
:1039000018E27F9770211247E678C874FFF20874B6
:1039100003F20874A2F27BFE7A00790712005F12AC
:103920007AC5127DFC801F1247E678C874FFF20842
:103930007403F20874ABF27BFE7A00790712005F21
:10394000127AC5127E567F887E137D007C00027835
:01395000BABC
:1071FF00C280C281C283C284C287C290C292C2932C
:10720F0020820B7865E22401F218E23400F2208527
:10721F000B7877E22401F218E23400F220860B7823
:10722F0087E22401F218E23400F220910B7893E206
:09723F002401F218E23400F222ED
:10724800C280D281C283D284C287D290C292D293A2
